{
  "_format": "hh-sol-artifact-1",
  "contractName": "ElectionManager",
  "sourceName": "contracts/ElectionManager.sol",
  "abi": [
    {
      "inputs": [
        {
          "internalType": "address",
          "name": "votingToken_",
          "type": "address"
        }
      ],
      "stateMutability": "nonpayable",
      "type": "constructor"
    },
    {
      "anonymous": false,
      "inputs": [
        {
          "indexed": true,
          "internalType": "uint256",
          "name": "id",
          "type": "uint256"
        },
        {
          "indexed": false,
          "internalType": "string",
          "name": "name",
          "type": "string"
        },
        {
          "indexed": false,
          "internalType": "uint64",
          "name": "startTime",
          "type": "uint64"
        },
        {
          "indexed": false,
          "internalType": "uint64",
          "name": "commitDeadline",
          "type": "uint64"
        },
        {
          "indexed": false,
          "internalType": "uint64",
          "name": "revealDeadline",
          "type": "uint64"
        },
        {
          "indexed": false,
          "internalType": "uint256[]",
          "name": "candidateIds",
          "type": "uint256[]"
        },
        {
          "indexed": false,
          "internalType": "bool",
          "name": "gatingEnabled",
          "type": "bool"
        }
      ],
      "name": "ElectionCreated",
      "type": "event"
    },
    {
      "anonymous": false,
      "inputs": [
        {
          "indexed": true,
          "internalType": "uint256",
          "name": "id",
          "type": "uint256"
        }
      ],
      "name": "ElectionFinalized",
      "type": "event"
    },
    {
      "anonymous": false,
      "inputs": [
        {
          "indexed": true,
          "internalType": "uint256",
          "name": "id",
          "type": "uint256"
        },
        {
          "indexed": true,
          "internalType": "address",
          "name": "voter",
          "type": "address"
        },
        {
          "indexed": false,
          "internalType": "bytes32",
          "name": "commitHash",
          "type": "bytes32"
        }
      ],
      "name": "VoteCommitted",
      "type": "event"
    },
    {
      "anonymous": false,
      "inputs": [
        {
          "indexed": true,
          "internalType": "uint256",
          "name": "id",
          "type": "uint256"
        },
        {
          "indexed": true,
          "internalType": "address",
          "name": "voter",
          "type": "address"
        },
        {
          "indexed": false,
          "internalType": "uint256",
          "name": "candidateId",
          "type": "uint256"
        }
      ],
      "name": "VoteRevealed",
      "type": "event"
    },
    {
      "inputs": [
        {
          "internalType": "uint256",
          "name": "id",
          "type": "uint256"
        },
        {
          "internalType": "bytes32",
          "name": "commitHash",
          "type": "bytes32"
        }
      ],
      "name": "commitVote",
      "outputs": [],
      "stateMutability": "nonpayable",
      "type": "function"
    },
    {
      "inputs": [
        {
          "internalType": "uint256",
          "name": "",
          "type": "uint256"
        },
        {
          "internalType": "address",
          "name": "",
          "type": "address"
        }
      ],
      "name": "commits",
      "outputs": [
        {
          "internalType": "bytes32",
          "name": "",
          "type": "bytes32"
        }
      ],
      "stateMutability": "view",
      "type": "function"
    },
    {
      "inputs": [
        {
          "internalType": "string",
          "name": "name",
          "type": "string"
        },
        {
          "internalType": "uint64",
          "name": "startTime",
          "type": "uint64"
        },
        {
          "internalType": "uint64",
          "name": "commitDeadline",
          "type": "uint64"
        },
        {
          "internalType": "uint64",
          "name": "revealDeadline",
          "type": "uint64"
        },
        {
          "internalType": "uint256[]",
          "name": "candidateIds",
          "type": "uint256[]"
        },
        {
          "internalType": "bool",
          "name": "gatingEnabled",
          "type": "bool"
        }
      ],
      "name": "createElection",
      "outputs": [
        {
          "internalType": "uint256",
          "name": "id",
          "type": "uint256"
        }
      ],
      "stateMutability": "nonpayable",
      "type": "function"
    },
    {
      "inputs": [
        {
          "internalType": "uint256",
          "name": "",
          "type": "uint256"
        }
      ],
      "name": "elections",
      "outputs": [
        {
          "internalType": "string",
          "name": "name",
          "type": "string"
        },
        {
          "internalType": "uint64",
          "name": "startTime",
          "type": "uint64"
        },
        {
          "internalType": "uint64",
          "name": "commitDeadline",
          "type": "uint64"
        },
        {
          "internalType": "uint64",
          "name": "revealDeadline",
          "type": "uint64"
        },
        {
          "internalType": "bool",
          "name": "finalized",
          "type": "bool"
        },
        {
          "internalType": "bool",
          "name": "gatingEnabled",
          "type": "bool"
        }
      ],
      "stateMutability": "view",
      "type": "function"
    },
    {
      "inputs": [],
      "name": "electionsCount",
      "outputs": [
        {
          "internalType": "uint256",
          "name": "",
          "type": "uint256"
        }
      ],
      "stateMutability": "view",
      "type": "function"
    },
    {
      "inputs": [
        {
          "internalType": "uint256",
          "name": "id",
          "type": "uint256"
        }
      ],
      "name": "finalize",
      "outputs": [],
      "stateMutability": "nonpayable",
      "type": "function"
    },
    {
      "inputs": [
        {
          "internalType": "uint256",
          "name": "id",
          "type": "uint256"
        }
      ],
      "name": "getCandidateIds",
      "outputs": [
        {
          "internalType": "uint256[]",
          "name": "",
          "type": "uint256[]"
        }
      ],
      "stateMutability": "view",
      "type": "function"
    },
    {
      "inputs": [
        {
          "internalType": "uint256",
          "name": "id",
          "type": "uint256"
        },
        {
          "internalType": "uint256",
          "name": "candidateId",
          "type": "uint256"
        }
      ],
      "name": "getTally",
      "outputs": [
        {
          "internalType": "uint256",
          "name": "",
          "type": "uint256"
        }
      ],
      "stateMutability": "view",
      "type": "function"
    },
    {
      "inputs": [
        {
          "internalType": "uint256",
          "name": "id",
          "type": "uint256"
        }
      ],
      "name": "getTimes",
      "outputs": [
        {
          "internalType": "uint64",
          "name": "startTime",
          "type": "uint64"
        },
        {
          "internalType": "uint64",
          "name": "commitDeadline",
          "type": "uint64"
        },
        {
          "internalType": "uint64",
          "name": "revealDeadline",
          "type": "uint64"
        },
        {
          "internalType": "bool",
          "name": "finalized",
          "type": "bool"
        }
      ],
      "stateMutability": "view",
      "type": "function"
    },
    {
      "inputs": [
        {
          "internalType": "uint256",
          "name": "id",
          "type": "uint256"
        },
        {
          "internalType": "uint256",
          "name": "candidateId",
          "type": "uint256"
        },
        {
          "internalType": "bytes32",
          "name": "salt",
          "type": "bytes32"
        }
      ],
      "name": "revealVote",
      "outputs": [],
      "stateMutability": "nonpayable",
      "type": "function"
    },
    {
      "inputs": [
        {
          "internalType": "uint256",
          "name": "",
          "type": "uint256"
        },
        {
          "internalType": "address",
          "name": "",
          "type": "address"
        }
      ],
      "name": "revealed",
      "outputs": [
        {
          "internalType": "bool",
          "name": "",
          "type": "bool"
        }
      ],
      "stateMutability": "view",
      "type": "function"
    },
    {
      "inputs": [
        {
          "internalType": "uint256",
          "name": "",
          "type": "uint256"
        },
        {
          "internalType": "uint256",
          "name": "",
          "type": "uint256"
        }
      ],
      "name": "tally",
      "outputs": [
        {
          "internalType": "uint256",
          "name": "",
          "type": "uint256"
        }
      ],
      "stateMutability": "view",
      "type": "function"
    },
    {
      "inputs": [],
      "name": "votingToken",
      "outputs": [
        {
          "internalType": "contract IVotingRightToken",
          "name": "",
          "type": "address"
        }
      ],
      "stateMutability": "view",
      "type": "function"
    }
  ],
  "bytecode": "0x608060405234801561001057600080fd5b506040516126ba3803806126ba833981810160405281019061003291906100db565b806000806101000a81548173ffffffffffffffffffffffffffffffffffffffff021916908373ffffffffffffffffffffffffffffffffffffffff16021790555050610108565b600080fd5b600073ffffffffffffffffffffffffffffffffffffffff82169050919050565b60006100a88261007d565b9050919050565b6100b88161009d565b81146100c357600080fd5b50565b6000815190506100d5816100af565b92915050565b6000602082840312156100f1576100f0610078565b5b60006100ff848285016100c6565b91505092915050565b6125a3806101176000396000f3fe608060405234801561001057600080fd5b50600436106100cf5760003560e01c80639a74c6951161008c578063b175699611610066578063b175699614610229578063cdae1fba14610259578063d3aa699e14610289578063f2ea5209146102bc576100cf565b80639a74c695146101d15780639da69180146101ef578063b03401231461020b576100cf565b806305261aea146100d45780630ea16c7a146100f05780631d2cd644146101205780635e6fef011461013c578063885d68a81461017157806397c3f4e7146101a1575b600080fd5b6100ee60048036038101906100e991906111ea565b6102ec565b005b61010a600480360381019061010591906111ea565b61045a565b60405161011791906112d5565b60405180910390f35b61013a6004803603810190610135919061132d565b6104c8565b005b610156600480360381019061015191906111ea565b61089e565b6040516101689695949392919061144e565b60405180910390f35b61018b60048036038101906101869190611514565b6109b8565b6040516101989190611563565b60405180910390f35b6101bb60048036038101906101b6919061157e565b6109dd565b6040516101c891906115cd565b60405180910390f35b6101d9610a02565b6040516101e691906115cd565b60405180910390f35b610209600480360381019061020491906115e8565b610a08565b005b610213610db2565b6040516102209190611687565b60405180910390f35b610243600480360381019061023e9190611514565b610dd6565b60405161025091906116a2565b60405180910390f35b610273600480360381019061026e919061157e565b610e05565b60405161028091906115cd565b60405180910390f35b6102a3600480360381019061029e91906111ea565b610e34565b6040516102b394939291906116bd565b60405180910390f35b6102d660048036038101906102d19190611957565b610ebe565b6040516102e391906115cd565b60405180910390f35b6000600260008381526020019081526020016000209050600081600001805461031490611a4b565b905011610356576040517f08c379a000000000000000000000000000000000000000000000000000000000815260040161034d90611ac8565b60405180910390fd5b8060010160109054906101000a900467ffffffffffffffff1667ffffffffffffffff1642116103ba576040517f08c379a00000000000000000000000000000000000000000000000000000000081526004016103b190611b34565b60405180910390fd5b8060010160189054906101000a900460ff161561040c576040517f08c379a000000000000000000000000000000000000000000000000000000000815260040161040390611ba0565b60405180910390fd5b60018160010160186101000a81548160ff021916908315150217905550817f91dd42272d56833844c782309d408c2ce0612df469d35fcbf2bef1a8e21e4f9560405160405180910390a25050565b6060600260008381526020019081526020016000206002018054806020026020016040519081016040528092919081815260200182805480156104bc57602002820191906000526020600020905b8154815260200190600101908083116104a8575b50505050509050919050565b600060026000858152602001908152602001600020905060008160000180546104f090611a4b565b905011610532576040517f08c379a000000000000000000000000000000000000000000000000000000000815260040161052990611ac8565b60405180910390fd5b8060010160089054906101000a900467ffffffffffffffff1667ffffffffffffffff164211610596576040517f08c379a000000000000000000000000000000000000000000000000000000000815260040161058d90611c0c565b60405180910390fd5b8060010160109054906101000a900467ffffffffffffffff1667ffffffffffffffff164211156105fb576040517f08c379a00000000000000000000000000000000000000000000000000000000081526004016105f290611c78565b60405180910390fd5b60006003600086815260200190815260200160002060003373ffffffffffffffffffffffffffffffffffffffff1673ffffffffffffffffffffffffffffffffffffffff1681526020019081526020016000205490506000801b8103610695576040517f08c379a000000000000000000000000000000000000000000000000000000000815260040161068c90611ce4565b60405180910390fd5b6004600086815260200190815260200160002060003373ffffffffffffffffffffffffffffffffffffffff1673ffffffffffffffffffffffffffffffffffffffff16815260200190815260200160002060009054906101000a900460ff1615610733576040517f08c379a000000000000000000000000000000000000000000000000000000000815260040161072a90611d50565b60405180910390fd5b60008484604051602001610748929190611d70565b6040516020818303038152906040528051906020012090508181146107a2576040517f08c379a000000000000000000000000000000000000000000000000000000000815260040161079990611de5565b60405180910390fd5b600160056000888152602001908152602001600020600087815260200190815260200160002060008282546107d79190611e34565b9250508190555060016004600088815260200190815260200160002060003373ffffffffffffffffffffffffffffffffffffffff1673ffffffffffffffffffffffffffffffffffffffff16815260200190815260200160002060006101000a81548160ff0219169083151502179055503373ffffffffffffffffffffffffffffffffffffffff16867fd5232b050e3221ade5a3653733191681ef3bde39c4530d87c9bb74004f99dadc8760405161088e91906115cd565b60405180910390a3505050505050565b60026020528060005260406000206000915090508060000180546108c190611a4b565b80601f01602080910402602001604051908101604052809291908181526020018280546108ed90611a4b565b801561093a5780601f1061090f5761010080835404028352916020019161093a565b820191906000526020600020905b81548152906001019060200180831161091d57829003601f168201915b5050505050908060010160009054906101000a900467ffffffffffffffff16908060010160089054906101000a900467ffffffffffffffff16908060010160109054906101000a900467ffffffffffffffff16908060010160189054906101000a900460ff16908060030160009054906101000a900460ff16905086565b6003602052816000526040600020602052806000526040600020600091509150505481565b6005602052816000526040600020602052806000526040600020600091509150505481565b60015481565b60006002600084815260200190815260200160002090506000816000018054610a3090611a4b565b905011610a72576040517f08c379a0000000000000000000000000000000000000000000000000000000008152600401610a6990611ac8565b60405180910390fd5b8060010160009054906101000a900467ffffffffffffffff1667ffffffffffffffff16421015610ad7576040517f08c379a0000000000000000000000000000000000000000000000000000000008152600401610ace90611eb4565b60405180910390fd5b8060010160089054906101000a900467ffffffffffffffff1667ffffffffffffffff16421115610b3c576040517f08c379a0000000000000000000000000000000000000000000000000000000008152600401610b3390611f20565b60405180910390fd5b6000801b6003600085815260200190815260200160002060003373ffffffffffffffffffffffffffffffffffffffff1673ffffffffffffffffffffffffffffffffffffffff1681526020019081526020016000205414610bd1576040517f08c379a0000000000000000000000000000000000000000000000000000000008152600401610bc890611f8c565b60405180910390fd5b8060030160009054906101000a900460ff1615610cc45760008054906101000a900473ffffffffffffffffffffffffffffffffffffffff1673ffffffffffffffffffffffffffffffffffffffff1663ca89338933856040518363ffffffff1660e01b8152600401610c43929190611fbb565b602060405180830381865afa158015610c60573d6000803e3d6000fd5b505050506040513d601f19601f82011682018060405250810190610c849190611ff9565b610cc3576040517f08c379a0000000000000000000000000000000000000000000000000000000008152600401610cba90612072565b60405180910390fd5b5b6000801b8203610d09576040517f08c379a0000000000000000000000000000000000000000000000000000000008152600401610d00906120de565b60405180910390fd5b816003600085815260200190815260200160002060003373ffffffffffffffffffffffffffffffffffffffff1673ffffffffffffffffffffffffffffffffffffffff168152602001908152602001600020819055503373ffffffffffffffffffffffffffffffffffffffff16837f1f4e2aa7825ef02e85293e2de66cfbcb326af2632b558996e546bb1ef3e8764d84604051610da59190611563565b60405180910390a3505050565b60008054906101000a900473ffffffffffffffffffffffffffffffffffffffff1681565b60046020528160005260406000206020528060005260406000206000915091509054906101000a900460ff1681565b600060056000848152602001908152602001600020600083815260200190815260200160002054905092915050565b60008060008060006002600087815260200190815260200160002090508060010160009054906101000a900467ffffffffffffffff168160010160089054906101000a900467ffffffffffffffff168260010160109054906101000a900467ffffffffffffffff168360010160189054906101000a900460ff169450945094509450509193509193565b600080875111610f03576040517f08c379a0000000000000000000000000000000000000000000000000000000008152600401610efa9061214a565b60405180910390fd5b6000835111610f47576040517f08c379a0000000000000000000000000000000000000000000000000000000008152600401610f3e906121b6565b60405180910390fd5b8467ffffffffffffffff168667ffffffffffffffff1610610f9d576040517f08c379a0000000000000000000000000000000000000000000000000000000008152600401610f9490612222565b60405180910390fd5b8367ffffffffffffffff168567ffffffffffffffff1610610ff3576040517f08c379a0000000000000000000000000000000000000000000000000000000008152600401610fea90612222565b60405180910390fd5b60016000815461100290612242565b9190508190559050600060026000838152602001908152602001600020905087816000019081611032919061242c565b50868160010160006101000a81548167ffffffffffffffff021916908367ffffffffffffffff160217905550858160010160086101000a81548167ffffffffffffffff021916908367ffffffffffffffff160217905550848160010160106101000a81548167ffffffffffffffff021916908367ffffffffffffffff160217905550838160020190805190602001906110cc929190611136565b50828160030160006101000a81548160ff021916908315150217905550817f7b3726d7a948f0ab1421ad154ae6b0f9409cc2621fd1c165fdcafafed94a5071898989898989604051611123969594939291906124fe565b60405180910390a2509695505050505050565b828054828255906000526020600020908101928215611172579160200282015b82811115611171578251825591602001919060010190611156565b5b50905061117f9190611183565b5090565b5b8082111561119c576000816000905550600101611184565b5090565b6000604051905090565b600080fd5b600080fd5b6000819050919050565b6111c7816111b4565b81146111d257600080fd5b50565b6000813590506111e4816111be565b92915050565b600060208284031215611200576111ff6111aa565b5b600061120e848285016111d5565b91505092915050565b600081519050919050565b600082825260208201905092915050565b6000819050602082019050919050565b61124c816111b4565b82525050565b600061125e8383611243565b60208301905092915050565b6000602082019050919050565b600061128282611217565b61128c8185611222565b935061129783611233565b8060005b838110156112c85781516112af8882611252565b97506112ba8361126a565b92505060018101905061129b565b5085935050505092915050565b600060208201905081810360008301526112ef8184611277565b905092915050565b6000819050919050565b61130a816112f7565b811461131557600080fd5b50565b60008135905061132781611301565b92915050565b600080600060608486031215611346576113456111aa565b5b6000611354868287016111d5565b9350506020611365868287016111d5565b925050604061137686828701611318565b9150509250925092565b600081519050919050565b600082825260208201905092915050565b60005b838110156113ba57808201518184015260208101905061139f565b60008484015250505050565b6000601f19601f8301169050919050565b60006113e282611380565b6113ec818561138b565b93506113fc81856020860161139c565b611405816113c6565b840191505092915050565b600067ffffffffffffffff82169050919050565b61142d81611410565b82525050565b60008115159050919050565b61144881611433565b82525050565b600060c082019050818103600083015261146881896113d7565b90506114776020830188611424565b6114846040830187611424565b6114916060830186611424565b61149e608083018561143f565b6114ab60a083018461143f565b979650505050505050565b600073ffffffffffffffffffffffffffffffffffffffff82169050919050565b60006114e1826114b6565b9050919050565b6114f1816114d6565b81146114fc57600080fd5b50565b60008135905061150e816114e8565b92915050565b6000806040838503121561152b5761152a6111aa565b5b6000611539858286016111d5565b925050602061154a858286016114ff565b9150509250929050565b61155d816112f7565b82525050565b60006020820190506115786000830184611554565b92915050565b60008060408385031215611595576115946111aa565b5b60006115a3858286016111d5565b92505060206115b4858286016111d5565b9150509250929050565b6115c7816111b4565b82525050565b60006020820190506115e260008301846115be565b92915050565b600080604083850312156115ff576115fe6111aa565b5b600061160d858286016111d5565b925050602061161e85828601611318565b9150509250929050565b6000819050919050565b600061164d611648611643846114b6565b611628565b6114b6565b9050919050565b600061165f82611632565b9050919050565b600061167182611654565b9050919050565b61168181611666565b82525050565b600060208201905061169c6000830184611678565b92915050565b60006020820190506116b7600083018461143f565b92915050565b60006080820190506116d26000830187611424565b6116df6020830186611424565b6116ec6040830185611424565b6116f9606083018461143f565b95945050505050565b600080fd5b600080fd5b7f4e487b7100000000000000000000000000000000000000000000000000000000600052604160045260246000fd5b611744826113c6565b810181811067ffffffffffffffff821117156117635761176261170c565b5b80604052505050565b60006117766111a0565b9050611782828261173b565b919050565b600067ffffffffffffffff8211156117a2576117a161170c565b5b6117ab826113c6565b9050602081019050919050565b82818337600083830152505050565b60006117da6117d584611787565b61176c565b9050828152602081018484840111156117f6576117f5611707565b5b6118018482856117b8565b509392505050565b600082601f83011261181e5761181d611702565b5b813561182e8482602086016117c7565b91505092915050565b61184081611410565b811461184b57600080fd5b50565b60008135905061185d81611837565b92915050565b600067ffffffffffffffff82111561187e5761187d61170c565b5b602082029050602081019050919050565b600080fd5b60006118a76118a284611863565b61176c565b905080838252602082019050602084028301858111156118ca576118c961188f565b5b835b818110156118f357806118df88826111d5565b8452602084019350506020810190506118cc565b5050509392505050565b600082601f83011261191257611911611702565b5b8135611922848260208601611894565b91505092915050565b61193481611433565b811461193f57600080fd5b50565b6000813590506119518161192b565b92915050565b60008060008060008060c08789031215611974576119736111aa565b5b600087013567ffffffffffffffff811115611992576119916111af565b5b61199e89828a01611809565b96505060206119af89828a0161184e565b95505060406119c089828a0161184e565b94505060606119d189828a0161184e565b935050608087013567ffffffffffffffff8111156119f2576119f16111af565b5b6119fe89828a016118fd565b92505060a0611a0f89828a01611942565b9150509295509295509295565b7f4e487b7100000000000000000000000000000000000000000000000000000000600052602260045260246000fd5b60006002820490506001821680611a6357607f821691505b602082108103611a7657611a75611a1c565b5b50919050565b7f4e6f20656c656374696f6e000000000000000000000000000000000000000000600082015250565b6000611ab2600b8361138b565b9150611abd82611a7c565b602082019050919050565b60006020820190508181036000830152611ae181611aa5565b9050919050565b7f52657665616c206e6f74206f7665720000000000000000000000000000000000600082015250565b6000611b1e600f8361138b565b9150611b2982611ae8565b602082019050919050565b60006020820190508181036000830152611b4d81611b11565b9050919050565b7f416c72656164792066696e616c697a6564000000000000000000000000000000600082015250565b6000611b8a60118361138b565b9150611b9582611b54565b602082019050919050565b60006020820190508181036000830152611bb981611b7d565b9050919050565b7f436f6d6d69742070686173650000000000000000000000000000000000000000600082015250565b6000611bf6600c8361138b565b9150611c0182611bc0565b602082019050919050565b60006020820190508181036000830152611c2581611be9565b9050919050565b7f52657665616c207068617365206f766572000000000000000000000000000000600082015250565b6000611c6260118361138b565b9150611c6d82611c2c565b602082019050919050565b60006020820190508181036000830152611c9181611c55565b9050919050565b7f4e6f20636f6d6d69740000000000000000000000000000000000000000000000600082015250565b6000611cce60098361138b565b9150611cd982611c98565b602082019050919050565b60006020820190508181036000830152611cfd81611cc1565b9050919050565b7f416c72656164792072657665616c656400000000000000000000000000000000600082015250565b6000611d3a60108361138b565b9150611d4582611d04565b602082019050919050565b60006020820190508181036000830152611d6981611d2d565b9050919050565b6000604082019050611d8560008301856115be565b611d926020830184611554565b9392505050565b7f496e76616c69642072657665616c000000000000000000000000000000000000600082015250565b6000611dcf600e8361138b565b9150611dda82611d99565b602082019050919050565b60006020820190508181036000830152611dfe81611dc2565b9050919050565b7f4e487b7100000000000000000000000000000000000000000000000000000000600052601160045260246000fd5b6000611e3f826111b4565b9150611e4a836111b4565b9250828201905080821115611e6257611e61611e05565b5b92915050565b7f546f6f206561726c790000000000000000000000000000000000000000000000600082015250565b6000611e9e60098361138b565b9150611ea982611e68565b602082019050919050565b60006020820190508181036000830152611ecd81611e91565b9050919050565b7f436f6d6d6974207068617365206f766572000000000000000000000000000000600082015250565b6000611f0a60118361138b565b9150611f1582611ed4565b602082019050919050565b60006020820190508181036000830152611f3981611efd565b9050919050565b7f416c726561647920636f6d6d6974746564000000000000000000000000000000600082015250565b6000611f7660118361138b565b9150611f8182611f40565b602082019050919050565b60006020820190508181036000830152611fa581611f69565b9050919050565b611fb5816114d6565b82525050565b6000604082019050611fd06000830185611fac565b611fdd60208301846115be565b9392505050565b600081519050611ff38161192b565b92915050565b60006020828403121561200f5761200e6111aa565b5b600061201d84828501611fe4565b91505092915050565b7f4e6f20766f74696e672072696768740000000000000000000000000000000000600082015250565b600061205c600f8361138b565b915061206782612026565b602082019050919050565b6000602082019050818103600083015261208b8161204f565b9050919050565b7f456d70747920636f6d6d69740000000000000000000000000000000000000000600082015250565b60006120c8600c8361138b565b91506120d382612092565b602082019050919050565b600060208201905081810360008301526120f7816120bb565b9050919050565b7f456d707479206e616d6500000000000000000000000000000000000000000000600082015250565b6000612134600a8361138b565b915061213f826120fe565b602082019050919050565b6000602082019050818103600083015261216381612127565b9050919050565b7f4e6f2063616e6469646174657300000000000000000000000000000000000000600082015250565b60006121a0600d8361138b565b91506121ab8261216a565b602082019050919050565b600060208201905081810360008301526121cf81612193565b9050919050565b7f54696d6573206f72646572000000000000000000000000000000000000000000600082015250565b600061220c600b8361138b565b9150612217826121d6565b602082019050919050565b6000602082019050818103600083015261223b816121ff565b9050919050565b600061224d826111b4565b91507fffffffffffffffffffffffffffffffffffffffffffffffffffffffffffffffff820361227f5761227e611e05565b5b600182019050919050565b60008190508160005260206000209050919050565b60006020601f8301049050919050565b600082821b905092915050565b6000600883026122ec7fffffffffffffffffffffffffffffffffffffffffffffffffffffffffffffffff826122af565b6122f686836122af565b95508019841693508086168417925050509392505050565b600061232961232461231f846111b4565b611628565b6111b4565b9050919050565b6000819050919050565b6123438361230e565b61235761234f82612330565b8484546122bc565b825550505050565b600090565b61236c61235f565b61237781848461233a565b505050565b5b8181101561239b57612390600082612364565b60018101905061237d565b5050565b601f8211156123e0576123b18161228a565b6123ba8461229f565b810160208510156123c9578190505b6123dd6123d58561229f565b83018261237c565b50505b505050565b600082821c905092915050565b6000612403600019846008026123e5565b1980831691505092915050565b600061241c83836123f2565b9150826002028217905092915050565b61243582611380565b67ffffffffffffffff81111561244e5761244d61170c565b5b6124588254611a4b565b61246382828561239f565b600060209050601f8311600181146124965760008415612484578287015190505b61248e8582612410565b8655506124f6565b601f1984166124a48661228a565b60005b828110156124cc578489015182556001820191506020850194506020810190506124a7565b868310156124e957848901516124e5601f8916826123f2565b8355505b6001600288020188555050505b505050505050565b600060c082019050818103600083015261251881896113d7565b90506125276020830188611424565b6125346040830187611424565b6125416060830186611424565b81810360808301526125538185611277565b905061256260a083018461143f565b97965050505050505056fea264697066735822122013314d1a64b0df52e2e840bb1fb5363fc4c5d3bcee03240054c8fdf91810cae964736f6c634300081c0033",
  "linkReferences": {},
  "deployedLinkReferences": {}
}