{
  "_format": "hh-sol-artifact-1",
  "contractName": "VotingRightToken",
  "sourceName": "contracts/VotingRightToken.sol",
  "abi": [
    {
      "inputs": [],
      "stateMutability": "nonpayable",
      "type": "constructor"
    },
    {
      "inputs": [],
      "name": "AccessControlBadConfirmation",
      "type": "error"
    },
    {
      "inputs": [
        {
          "internalType": "address",
          "name": "account",
          "type": "address"
        },
        {
          "internalType": "bytes32",
          "name": "neededRole",
          "type": "bytes32"
        }
      ],
      "name": "AccessControlUnauthorizedAccount",
      "type": "error"
    },
    {
      "inputs": [
        {
          "internalType": "address",
          "name": "sender",
          "type": "address"
        },
        {
          "internalType": "uint256",
          "name": "balance",
          "type": "uint256"
        },
        {
          "internalType": "uint256",
          "name": "needed",
          "type": "uint256"
        },
        {
          "internalType": "uint256",
          "name": "tokenId",
          "type": "uint256"
        }
      ],
      "name": "ERC1155InsufficientBalance",
      "type": "error"
    },
    {
      "inputs": [
        {
          "internalType": "address",
          "name": "approver",
          "type": "address"
        }
      ],
      "name": "ERC1155InvalidApprover",
      "type": "error"
    },
    {
      "inputs": [
        {
          "internalType": "uint256",
          "name": "idsLength",
          "type": "uint256"
        },
        {
          "internalType": "uint256",
          "name": "valuesLength",
          "type": "uint256"
        }
      ],
      "name": "ERC1155InvalidArrayLength",
      "type": "error"
    },
    {
      "inputs": [
        {
          "internalType": "address",
          "name": "operator",
          "type": "address"
        }
      ],
      "name": "ERC1155InvalidOperator",
      "type": "error"
    },
    {
      "inputs": [
        {
          "internalType": "address",
          "name": "receiver",
          "type": "address"
        }
      ],
      "name": "ERC1155InvalidReceiver",
      "type": "error"
    },
    {
      "inputs": [
        {
          "internalType": "address",
          "name": "sender",
          "type": "address"
        }
      ],
      "name": "ERC1155InvalidSender",
      "type": "error"
    },
    {
      "inputs": [
        {
          "internalType": "address",
          "name": "operator",
          "type": "address"
        },
        {
          "internalType": "address",
          "name": "owner",
          "type": "address"
        }
      ],
      "name": "ERC1155MissingApprovalForAll",
      "type": "error"
    },
    {
      "anonymous": false,
      "inputs": [
        {
          "indexed": true,
          "internalType": "address",
          "name": "account",
          "type": "address"
        },
        {
          "indexed": true,
          "internalType": "address",
          "name": "operator",
          "type": "address"
        },
        {
          "indexed": false,
          "internalType": "bool",
          "name": "approved",
          "type": "bool"
        }
      ],
      "name": "ApprovalForAll",
      "type": "event"
    },
    {
      "anonymous": false,
      "inputs": [
        {
          "indexed": true,
          "internalType": "bytes32",
          "name": "role",
          "type": "bytes32"
        },
        {
          "indexed": true,
          "internalType": "bytes32",
          "name": "previousAdminRole",
          "type": "bytes32"
        },
        {
          "indexed": true,
          "internalType": "bytes32",
          "name": "newAdminRole",
          "type": "bytes32"
        }
      ],
      "name": "RoleAdminChanged",
      "type": "event"
    },
    {
      "anonymous": false,
      "inputs": [
        {
          "indexed": true,
          "internalType": "bytes32",
          "name": "role",
          "type": "bytes32"
        },
        {
          "indexed": true,
          "internalType": "address",
          "name": "account",
          "type": "address"
        },
        {
          "indexed": true,
          "internalType": "address",
          "name": "sender",
          "type": "address"
        }
      ],
      "name": "RoleGranted",
      "type": "event"
    },
    {
      "anonymous": false,
      "inputs": [
        {
          "indexed": true,
          "internalType": "bytes32",
          "name": "role",
          "type": "bytes32"
        },
        {
          "indexed": true,
          "internalType": "address",
          "name": "account",
          "type": "address"
        },
        {
          "indexed": true,
          "internalType": "address",
          "name": "sender",
          "type": "address"
        }
      ],
      "name": "RoleRevoked",
      "type": "event"
    },
    {
      "anonymous": false,
      "inputs": [
        {
          "indexed": true,
          "internalType": "address",
          "name": "operator",
          "type": "address"
        },
        {
          "indexed": true,
          "internalType": "address",
          "name": "from",
          "type": "address"
        },
        {
          "indexed": true,
          "internalType": "address",
          "name": "to",
          "type": "address"
        },
        {
          "indexed": false,
          "internalType": "uint256[]",
          "name": "ids",
          "type": "uint256[]"
        },
        {
          "indexed": false,
          "internalType": "uint256[]",
          "name": "values",
          "type": "uint256[]"
        }
      ],
      "name": "TransferBatch",
      "type": "event"
    },
    {
      "anonymous": false,
      "inputs": [
        {
          "indexed": true,
          "internalType": "address",
          "name": "operator",
          "type": "address"
        },
        {
          "indexed": true,
          "internalType": "address",
          "name": "from",
          "type": "address"
        },
        {
          "indexed": true,
          "internalType": "address",
          "name": "to",
          "type": "address"
        },
        {
          "indexed": false,
          "internalType": "uint256",
          "name": "id",
          "type": "uint256"
        },
        {
          "indexed": false,
          "internalType": "uint256",
          "name": "value",
          "type": "uint256"
        }
      ],
      "name": "TransferSingle",
      "type": "event"
    },
    {
      "anonymous": false,
      "inputs": [
        {
          "indexed": false,
          "internalType": "string",
          "name": "value",
          "type": "string"
        },
        {
          "indexed": true,
          "internalType": "uint256",
          "name": "id",
          "type": "uint256"
        }
      ],
      "name": "URI",
      "type": "event"
    },
    {
      "anonymous": false,
      "inputs": [
        {
          "indexed": true,
          "internalType": "uint256",
          "name": "electionId",
          "type": "uint256"
        },
        {
          "indexed": true,
          "internalType": "address",
          "name": "account",
          "type": "address"
        }
      ],
      "name": "VotingRightGranted",
      "type": "event"
    },
    {
      "anonymous": false,
      "inputs": [
        {
          "indexed": true,
          "internalType": "uint256",
          "name": "electionId",
          "type": "uint256"
        },
        {
          "indexed": true,
          "internalType": "address",
          "name": "account",
          "type": "address"
        }
      ],
      "name": "VotingRightRevoked",
      "type": "event"
    },
    {
      "inputs": [],
      "name": "DEFAULT_ADMIN_ROLE",
      "outputs": [
        {
          "internalType": "bytes32",
          "name": "",
          "type": "bytes32"
        }
      ],
      "stateMutability": "view",
      "type": "function"
    },
    {
      "inputs": [],
      "name": "MINTER_ROLE",
      "outputs": [
        {
          "internalType": "bytes32",
          "name": "",
          "type": "bytes32"
        }
      ],
      "stateMutability": "view",
      "type": "function"
    },
    {
      "inputs": [
        {
          "internalType": "address",
          "name": "account",
          "type": "address"
        },
        {
          "internalType": "uint256",
          "name": "id",
          "type": "uint256"
        }
      ],
      "name": "balanceOf",
      "outputs": [
        {
          "internalType": "uint256",
          "name": "",
          "type": "uint256"
        }
      ],
      "stateMutability": "view",
      "type": "function"
    },
    {
      "inputs": [
        {
          "internalType": "address[]",
          "name": "accounts",
          "type": "address[]"
        },
        {
          "internalType": "uint256[]",
          "name": "ids",
          "type": "uint256[]"
        }
      ],
      "name": "balanceOfBatch",
      "outputs": [
        {
          "internalType": "uint256[]",
          "name": "",
          "type": "uint256[]"
        }
      ],
      "stateMutability": "view",
      "type": "function"
    },
    {
      "inputs": [
        {
          "internalType": "bytes32",
          "name": "role",
          "type": "bytes32"
        }
      ],
      "name": "getRoleAdmin",
      "outputs": [
        {
          "internalType": "bytes32",
          "name": "",
          "type": "bytes32"
        }
      ],
      "stateMutability": "view",
      "type": "function"
    },
    {
      "inputs": [
        {
          "internalType": "uint256",
          "name": "electionId",
          "type": "uint256"
        },
        {
          "internalType": "address[]",
          "name": "accounts",
          "type": "address[]"
        }
      ],
      "name": "grantBatch",
      "outputs": [],
      "stateMutability": "nonpayable",
      "type": "function"
    },
    {
      "inputs": [
        {
          "internalType": "bytes32",
          "name": "role",
          "type": "bytes32"
        },
        {
          "internalType": "address",
          "name": "account",
          "type": "address"
        }
      ],
      "name": "grantRole",
      "outputs": [],
      "stateMutability": "nonpayable",
      "type": "function"
    },
    {
      "inputs": [
        {
          "internalType": "address",
          "name": "account",
          "type": "address"
        },
        {
          "internalType": "uint256",
          "name": "electionId",
          "type": "uint256"
        }
      ],
      "name": "hasRight",
      "outputs": [
        {
          "internalType": "bool",
          "name": "",
          "type": "bool"
        }
      ],
      "stateMutability": "view",
      "type": "function"
    },
    {
      "inputs": [
        {
          "internalType": "bytes32",
          "name": "role",
          "type": "bytes32"
        },
        {
          "internalType": "address",
          "name": "account",
          "type": "address"
        }
      ],
      "name": "hasRole",
      "outputs": [
        {
          "internalType": "bool",
          "name": "",
          "type": "bool"
        }
      ],
      "stateMutability": "view",
      "type": "function"
    },
    {
      "inputs": [
        {
          "internalType": "address",
          "name": "account",
          "type": "address"
        },
        {
          "internalType": "address",
          "name": "operator",
          "type": "address"
        }
      ],
      "name": "isApprovedForAll",
      "outputs": [
        {
          "internalType": "bool",
          "name": "",
          "type": "bool"
        }
      ],
      "stateMutability": "view",
      "type": "function"
    },
    {
      "inputs": [
        {
          "internalType": "bytes32",
          "name": "role",
          "type": "bytes32"
        },
        {
          "internalType": "address",
          "name": "callerConfirmation",
          "type": "address"
        }
      ],
      "name": "renounceRole",
      "outputs": [],
      "stateMutability": "nonpayable",
      "type": "function"
    },
    {
      "inputs": [
        {
          "internalType": "uint256",
          "name": "electionId",
          "type": "uint256"
        },
        {
          "internalType": "address[]",
          "name": "accounts",
          "type": "address[]"
        }
      ],
      "name": "revokeBatch",
      "outputs": [],
      "stateMutability": "nonpayable",
      "type": "function"
    },
    {
      "inputs": [
        {
          "internalType": "bytes32",
          "name": "role",
          "type": "bytes32"
        },
        {
          "internalType": "address",
          "name": "account",
          "type": "address"
        }
      ],
      "name": "revokeRole",
      "outputs": [],
      "stateMutability": "nonpayable",
      "type": "function"
    },
    {
      "inputs": [
        {
          "internalType": "address",
          "name": "",
          "type": "address"
        },
        {
          "internalType": "address",
          "name": "",
          "type": "address"
        },
        {
          "internalType": "uint256[]",
          "name": "",
          "type": "uint256[]"
        },
        {
          "internalType": "uint256[]",
          "name": "",
          "type": "uint256[]"
        },
        {
          "internalType": "bytes",
          "name": "",
          "type": "bytes"
        }
      ],
      "name": "safeBatchTransferFrom",
      "outputs": [],
      "stateMutability": "pure",
      "type": "function"
    },
    {
      "inputs": [
        {
          "internalType": "address",
          "name": "",
          "type": "address"
        },
        {
          "internalType": "address",
          "name": "",
          "type": "address"
        },
        {
          "internalType": "uint256",
          "name": "",
          "type": "uint256"
        },
        {
          "internalType": "uint256",
          "name": "",
          "type": "uint256"
        },
        {
          "internalType": "bytes",
          "name": "",
          "type": "bytes"
        }
      ],
      "name": "safeTransferFrom",
      "outputs": [],
      "stateMutability": "pure",
      "type": "function"
    },
    {
      "inputs": [
        {
          "internalType": "address",
          "name": "",
          "type": "address"
        },
        {
          "internalType": "bool",
          "name": "",
          "type": "bool"
        }
      ],
      "name": "setApprovalForAll",
      "outputs": [],
      "stateMutability": "pure",
      "type": "function"
    },
    {
      "inputs": [
        {
          "internalType": "bytes4",
          "name": "interfaceId",
          "type": "bytes4"
        }
      ],
      "name": "supportsInterface",
      "outputs": [
        {
          "internalType": "bool",
          "name": "",
          "type": "bool"
        }
      ],
      "stateMutability": "view",
      "type": "function"
    },
    {
      "inputs": [
        {
          "internalType": "uint256",
          "name": "",
          "type": "uint256"
        }
      ],
      "name": "uri",
      "outputs": [
        {
          "internalType": "string",
          "name": "",
          "type": "string"
        }
      ],
      "stateMutability": "view",
      "type": "function"
    }
  ],
  "bytecode": "0x608060405234801561001057600080fd5b50604051806020016040528060008152506100308161004a60201b60201c565b506100446000801b3361005d60201b60201c565b506104f0565b8060029081610059919061041e565b5050565b600061006f838361015b60201b60201c565b6101505760016003600085815260200190815260200160002060000160008473ffffffffffffffffffffffffffffffffffffffff1673ffffffffffffffffffffffffffffffffffffffff16815260200190815260200160002060006101000a81548160ff0219169083151502179055506100ed6101c660201b60201c565b73ffffffffffffffffffffffffffffffffffffffff168273ffffffffffffffffffffffffffffffffffffffff16847f2f8788117e7eff1d82e926ec794901d17c78024a50270940304540a733656f0d60405160405180910390a460019050610155565b600090505b92915050565b60006003600084815260200190815260200160002060000160008373ffffffffffffffffffffffffffffffffffffffff1673ffffffffffffffffffffffffffffffffffffffff16815260200190815260200160002060009054906101000a900460ff16905092915050565b600033905090565b600081519050919050565b7f4e487b7100000000000000000000000000000000000000000000000000000000600052604160045260246000fd5b7f4e487b7100000000000000000000000000000000000000000000000000000000600052602260045260246000fd5b6000600282049050600182168061024f57607f821691505b60208210810361026257610261610208565b5b50919050565b60008190508160005260206000209050919050565b60006020601f8301049050919050565b600082821b905092915050565b6000600883026102ca7fffffffffffffffffffffffffffffffffffffffffffffffffffffffffffffffff8261028d565b6102d4868361028d565b95508019841693508086168417925050509392505050565b6000819050919050565b6000819050919050565b600061031b610316610311846102ec565b6102f6565b6102ec565b9050919050565b6000819050919050565b61033583610300565b61034961034182610322565b84845461029a565b825550505050565b600090565b61035e610351565b61036981848461032c565b505050565b5b8181101561038d57610382600082610356565b60018101905061036f565b5050565b601f8211156103d2576103a381610268565b6103ac8461027d565b810160208510156103bb578190505b6103cf6103c78561027d565b83018261036e565b50505b505050565b600082821c905092915050565b60006103f5600019846008026103d7565b1980831691505092915050565b600061040e83836103e4565b9150826002028217905092915050565b610427826101ce565b67ffffffffffffffff8111156104405761043f6101d9565b5b61044a8254610237565b610455828285610391565b600060209050601f8311600181146104885760008415610476578287015190505b6104808582610402565b8655506104e8565b601f19841661049686610268565b60005b828110156104be57848901518255600182019150602085019450602081019050610499565b868310156104db57848901516104d7601f8916826103e4565b8355505b6001600288020188555050505b505050505050565b6127a2806104ff6000396000f3fe608060405234801561001057600080fd5b50600436106101155760003560e01c80637c3355fc116100a2578063ca89338911610071578063ca89338914610300578063d539139314610330578063d547741f1461034e578063e985e9c51461036a578063f242432a1461039a57610115565b80637c3355fc1461027a57806391d1485414610296578063a217fddf146102c6578063a22cb465146102e457610115565b80632eb2c2d6116100e95780632eb2c2d6146101da5780632f2ff15d146101f657806336568abe146102125780633ec5c39e1461022e5780634e1273f41461024a57610115565b8062fdd58e1461011a57806301ffc9a71461014a5780630e89341c1461017a578063248a9ca3146101aa575b600080fd5b610134600480360381019061012f9190611902565b6103b6565b6040516101419190611951565b60405180910390f35b610164600480360381019061015f91906119c4565b610410565b6040516101719190611a0c565b60405180910390f35b610194600480360381019061018f9190611a27565b610422565b6040516101a19190611ae4565b60405180910390f35b6101c460048036038101906101bf9190611b3c565b6104b6565b6040516101d19190611b78565b60405180910390f35b6101f460048036038101906101ef9190611d90565b6104d6565b005b610210600480360381019061020b9190611e5f565b610511565b005b61022c60048036038101906102279190611e5f565b610533565b005b61024860048036038101906102439190611efa565b6105ae565b005b610264600480360381019061025f919061201d565b6106d3565b6040516102719190612153565b60405180910390f35b610294600480360381019061028f9190611efa565b6107dc565b005b6102b060048036038101906102ab9190611e5f565b610910565b6040516102bd9190611a0c565b60405180910390f35b6102ce61097b565b6040516102db9190611b78565b60405180910390f35b6102fe60048036038101906102f991906121a1565b610982565b005b61031a60048036038101906103159190611902565b6109bd565b6040516103279190611a0c565b60405180910390f35b6103386109d3565b6040516103459190611b78565b60405180910390f35b61036860048036038101906103639190611e5f565b6109f7565b005b610384600480360381019061037f91906121e1565b610a19565b6040516103919190611a0c565b60405180910390f35b6103b460048036038101906103af9190612221565b610aad565b005b600080600083815260200190815260200160002060008473ffffffffffffffffffffffffffffffffffffffff1673ffffffffffffffffffffffffffffffffffffffff16815260200190815260200160002054905092915050565b600061041b82610ae8565b9050919050565b606060028054610431906122e7565b80601f016020809104026020016040519081016040528092919081815260200182805461045d906122e7565b80156104aa5780601f1061047f576101008083540402835291602001916104aa565b820191906000526020600020905b81548152906001019060200180831161048d57829003601f168201915b50505050509050919050565b600060036000838152602001908152602001600020600101549050919050565b6040517f08c379a000000000000000000000000000000000000000000000000000000000815260040161050890612364565b60405180910390fd5b61051a826104b6565b61052381610b62565b61052d8383610b76565b50505050565b61053b610c68565b73ffffffffffffffffffffffffffffffffffffffff168173ffffffffffffffffffffffffffffffffffffffff161461059f576040517f6697b23200000000000000000000000000000000000000000000000000000000815260040160405180910390fd5b6105a98282610c70565b505050565b7f9f2df0fed2c77648de5860a4cc508cd0818c85b8b8a1ab4ceeef8d981c8956a66105d881610b62565b600083839050905060008111610623576040517f08c379a000000000000000000000000000000000000000000000000000000000815260040161061a906123d0565b60405180910390fd5b60005b818110156106cb576000858583818110610643576106426123f0565b5b9050602002016020810190610658919061241f565b9050600061066682896103b6565b11156106bd5761067881886001610d63565b8073ffffffffffffffffffffffffffffffffffffffff16877ff081ebe9200649b7170976b5e65e470b9ce24b64b10183e9bc2a568ac1753aad60405160405180910390a35b508080600101915050610626565b505050505050565b6060815183511461071f57815183516040517f5b05999100000000000000000000000000000000000000000000000000000000815260040161071692919061244c565b60405180910390fd5b6000835167ffffffffffffffff81111561073c5761073b611b98565b5b60405190808252806020026020018201604052801561076a5781602001602082028036833780820191505090505b50905060005b84518110156107d1576107a761078f8287610e0a90919063ffffffff16565b6107a28387610e1e90919063ffffffff16565b6103b6565b8282815181106107ba576107b96123f0565b5b602002602001018181525050806001019050610770565b508091505092915050565b7f9f2df0fed2c77648de5860a4cc508cd0818c85b8b8a1ab4ceeef8d981c8956a661080681610b62565b600083839050905060008111610851576040517f08c379a0000000000000000000000000000000000000000000000000000000008152600401610848906123d0565b60405180910390fd5b60005b81811015610908576000858583818110610871576108706123f0565b5b9050602002016020810190610886919061241f565b9050600061089482896103b6565b036108fa576108b58188600160405180602001604052806000815250610e32565b8073ffffffffffffffffffffffffffffffffffffffff16877f107596eb7eabc806a8fe8237ebb918dda61496739497168fdc38e394aa5fa61b60405160405180910390a35b508080600101915050610854565b505050505050565b60006003600084815260200190815260200160002060000160008373ffffffffffffffffffffffffffffffffffffffff1673ffffffffffffffffffffffffffffffffffffffff16815260200190815260200160002060009054906101000a900460ff16905092915050565b6000801b81565b6040517f08c379a00000000000000000000000000000000000000000000000000000000081526004016109b4906124c1565b60405180910390fd5b6000806109ca84846103b6565b11905092915050565b7f9f2df0fed2c77648de5860a4cc508cd0818c85b8b8a1ab4ceeef8d981c8956a681565b610a00826104b6565b610a0981610b62565b610a138383610c70565b50505050565b6000600160008473ffffffffffffffffffffffffffffffffffffffff1673ffffffffffffffffffffffffffffffffffffffff16815260200190815260200160002060008373ffffffffffffffffffffffffffffffffffffffff1673ffffffffffffffffffffffffffffffffffffffff16815260200190815260200160002060009054906101000a900460ff16905092915050565b6040517f08c379a0000000000000000000000000000000000000000000000000000000008152600401610adf90612364565b60405180910390fd5b60007f7965db0b000000000000000000000000000000000000000000000000000000007bffffffffffffffffffffffffffffffffffffffffffffffffffffffff1916827bffffffffffffffffffffffffffffffffffffffffffffffffffffffff19161480610b5b5750610b5a82610ecb565b5b9050919050565b610b7381610b6e610c68565b610fad565b50565b6000610b828383610910565b610c5d5760016003600085815260200190815260200160002060000160008473ffffffffffffffffffffffffffffffffffffffff1673ffffffffffffffffffffffffffffffffffffffff16815260200190815260200160002060006101000a81548160ff021916908315150217905550610bfa610c68565b73ffffffffffffffffffffffffffffffffffffffff168273ffffffffffffffffffffffffffffffffffffffff16847f2f8788117e7eff1d82e926ec794901d17c78024a50270940304540a733656f0d60405160405180910390a460019050610c62565b600090505b92915050565b600033905090565b6000610c7c8383610910565b15610d585760006003600085815260200190815260200160002060000160008473ffffffffffffffffffffffffffffffffffffffff1673ffffffffffffffffffffffffffffffffffffffff16815260200190815260200160002060006101000a81548160ff021916908315150217905550610cf5610c68565b73ffffffffffffffffffffffffffffffffffffffff168273ffffffffffffffffffffffffffffffffffffffff16847ff6391f5c32d9c69d2a47ea670b442974b53935d1edc7fd64eb21e047a839171b60405160405180910390a460019050610d5d565b600090505b92915050565b600073ffffffffffffffffffffffffffffffffffffffff168373ffffffffffffffffffffffffffffffffffffffff1603610dd55760006040517f01a83514000000000000000000000000000000000000000000000000000000008152600401610dcc91906124f0565b60405180910390fd5b600080610de28484610ffe565b91509150610e0385600084846040518060200160405280600081525061102e565b5050505050565b600060208202602084010151905092915050565b600060208202602084010151905092915050565b600073ffffffffffffffffffffffffffffffffffffffff168473ffffffffffffffffffffffffffffffffffffffff1603610ea45760006040517f57f447ce000000000000000000000000000000000000000000000000000000008152600401610e9b91906124f0565b60405180910390fd5b600080610eb18585610ffe565b91509150610ec360008784848761102e565b505050505050565b60007fd9b67a26000000000000000000000000000000000000000000000000000000007bffffffffffffffffffffffffffffffffffffffffffffffffffffffff1916827bffffffffffffffffffffffffffffffffffffffffffffffffffffffff19161480610f9657507f0e89341c000000000000000000000000000000000000000000000000000000007bffffffffffffffffffffffffffffffffffffffffffffffffffffffff1916827bffffffffffffffffffffffffffffffffffffffffffffffffffffffff1916145b80610fa65750610fa5826110e0565b5b9050919050565b610fb78282610910565b610ffa5780826040517fe2517d3f000000000000000000000000000000000000000000000000000000008152600401610ff192919061250b565b60405180910390fd5b5050565b60608060405191506001825283602083015260408201905060018152826020820152604081016040529250929050565b61103a8585858561114a565b600073ffffffffffffffffffffffffffffffffffffffff168473ffffffffffffffffffffffffffffffffffffffff16146110d9576000611078610c68565b905060018451036110c8576000611099600086610e1e90919063ffffffff16565b905060006110b1600086610e1e90919063ffffffff16565b90506110c18389898585896114f2565b50506110d7565b6110d68187878787876116a6565b5b505b5050505050565b60007f01ffc9a7000000000000000000000000000000000000000000000000000000007bffffffffffffffffffffffffffffffffffffffffffffffffffffffff1916827bffffffffffffffffffffffffffffffffffffffffffffffffffffffff1916149050919050565b805182511461119457815181516040517f5b05999100000000000000000000000000000000000000000000000000000000815260040161118b92919061244c565b60405180910390fd5b600061119e610c68565b905060005b83518110156113ad5760006111c18286610e1e90919063ffffffff16565b905060006111d88386610e1e90919063ffffffff16565b9050600073ffffffffffffffffffffffffffffffffffffffff168873ffffffffffffffffffffffffffffffffffffffff161461130557600080600084815260200190815260200160002060008a73ffffffffffffffffffffffffffffffffffffffff1673ffffffffffffffffffffffffffffffffffffffff168152602001908152602001600020549050818110156112ad57888183856040517f03dee4c50000000000000000000000000000000000000000000000000000000081526004016112a49493929190612534565b60405180910390fd5b81810360008085815260200190815260200160002060008b73ffffffffffffffffffffffffffffffffffffffff1673ffffffffffffffffffffffffffffffffffffffff16815260200190815260200160002081905550505b600073ffffffffffffffffffffffffffffffffffffffff168773ffffffffffffffffffffffffffffffffffffffff16146113a0578060008084815260200190815260200160002060008973ffffffffffffffffffffffffffffffffffffffff1673ffffffffffffffffffffffffffffffffffffffff168152602001908152602001600020600082825461139891906125a8565b925050819055505b50508060010190506111a3565b50600183510361146c5760006113cd600085610e1e90919063ffffffff16565b905060006113e5600085610e1e90919063ffffffff16565b90508573ffffffffffffffffffffffffffffffffffffffff168773ffffffffffffffffffffffffffffffffffffffff168473ffffffffffffffffffffffffffffffffffffffff167fc3d58168c5ae7397731d063d5bbf3d657854427343f4c083240f7aacaa2d0f62858560405161145d92919061244c565b60405180910390a450506114eb565b8373ffffffffffffffffffffffffffffffffffffffff168573ffffffffffffffffffffffffffffffffffffffff168273ffffffffffffffffffffffffffffffffffffffff167f4a39dc06d4c0dbc64b70af90fd698a233a518aa5d07e595d983b8c0526c8f7fb86866040516114e29291906125dc565b60405180910390a45b5050505050565b60008473ffffffffffffffffffffffffffffffffffffffff163b111561169e578373ffffffffffffffffffffffffffffffffffffffff1663f23a6e6187878686866040518663ffffffff1660e01b8152600401611553959493929190612668565b6020604051808303816000875af192505050801561158f57506040513d601f19601f8201168201806040525081019061158c91906126d7565b60015b611613573d80600081146115bf576040519150601f19603f3d011682016040523d82523d6000602084013e6115c4565b606091505b50600081510361160b57846040517f57f447ce00000000000000000000000000000000000000000000000000000000815260040161160291906124f0565b60405180910390fd5b805160208201fd5b63f23a6e6160e01b7bffffffffffffffffffffffffffffffffffffffffffffffffffffffff1916817bffffffffffffffffffffffffffffffffffffffffffffffffffffffff19161461169c57846040517f57f447ce00000000000000000000000000000000000000000000000000000000815260040161169391906124f0565b60405180910390fd5b505b505050505050565b60008473ffffffffffffffffffffffffffffffffffffffff163b1115611852578373ffffffffffffffffffffffffffffffffffffffff1663bc197c8187878686866040518663ffffffff1660e01b8152600401611707959493929190612704565b6020604051808303816000875af192505050801561174357506040513d601f19601f8201168201806040525081019061174091906126d7565b60015b6117c7573d8060008114611773576040519150601f19603f3d011682016040523d82523d6000602084013e611778565b606091505b5060008151036117bf57846040517f57f447ce0000000000000000000000000000000000000000000000000000000081526004016117b691906124f0565b60405180910390fd5b805160208201fd5b63bc197c8160e01b7bffffffffffffffffffffffffffffffffffffffffffffffffffffffff1916817bffffffffffffffffffffffffffffffffffffffffffffffffffffffff19161461185057846040517f57f447ce00000000000000000000000000000000000000000000000000000000815260040161184791906124f0565b60405180910390fd5b505b505050505050565b6000604051905090565b600080fd5b600080fd5b600073ffffffffffffffffffffffffffffffffffffffff82169050919050565b60006118998261186e565b9050919050565b6118a98161188e565b81146118b457600080fd5b50565b6000813590506118c6816118a0565b92915050565b6000819050919050565b6118df816118cc565b81146118ea57600080fd5b50565b6000813590506118fc816118d6565b92915050565b6000806040838503121561191957611918611864565b5b6000611927858286016118b7565b9250506020611938858286016118ed565b9150509250929050565b61194b816118cc565b82525050565b60006020820190506119666000830184611942565b92915050565b60007fffffffff0000000000000000000000000000000000000000000000000000000082169050919050565b6119a18161196c565b81146119ac57600080fd5b50565b6000813590506119be81611998565b92915050565b6000602082840312156119da576119d9611864565b5b60006119e8848285016119af565b91505092915050565b60008115159050919050565b611a06816119f1565b82525050565b6000602082019050611a2160008301846119fd565b92915050565b600060208284031215611a3d57611a3c611864565b5b6000611a4b848285016118ed565b91505092915050565b600081519050919050565b600082825260208201905092915050565b60005b83811015611a8e578082015181840152602081019050611a73565b60008484015250505050565b6000601f19601f8301169050919050565b6000611ab682611a54565b611ac08185611a5f565b9350611ad0818560208601611a70565b611ad981611a9a565b840191505092915050565b60006020820190508181036000830152611afe8184611aab565b905092915050565b6000819050919050565b611b1981611b06565b8114611b2457600080fd5b50565b600081359050611b3681611b10565b92915050565b600060208284031215611b5257611b51611864565b5b6000611b6084828501611b27565b91505092915050565b611b7281611b06565b82525050565b6000602082019050611b8d6000830184611b69565b92915050565b600080fd5b7f4e487b7100000000000000000000000000000000000000000000000000000000600052604160045260246000fd5b611bd082611a9a565b810181811067ffffffffffffffff82111715611bef57611bee611b98565b5b80604052505050565b6000611c0261185a565b9050611c0e8282611bc7565b919050565b600067ffffffffffffffff821115611c2e57611c2d611b98565b5b602082029050602081019050919050565b600080fd5b6000611c57611c5284611c13565b611bf8565b90508083825260208201905060208402830185811115611c7a57611c79611c3f565b5b835b81811015611ca35780611c8f88826118ed565b845260208401935050602081019050611c7c565b5050509392505050565b600082601f830112611cc257611cc1611b93565b5b8135611cd2848260208601611c44565b91505092915050565b600080fd5b600067ffffffffffffffff821115611cfb57611cfa611b98565b5b611d0482611a9a565b9050602081019050919050565b82818337600083830152505050565b6000611d33611d2e84611ce0565b611bf8565b905082815260208101848484011115611d4f57611d4e611cdb565b5b611d5a848285611d11565b509392505050565b600082601f830112611d7757611d76611b93565b5b8135611d87848260208601611d20565b91505092915050565b600080600080600060a08688031215611dac57611dab611864565b5b6000611dba888289016118b7565b9550506020611dcb888289016118b7565b945050604086013567ffffffffffffffff811115611dec57611deb611869565b5b611df888828901611cad565b935050606086013567ffffffffffffffff811115611e1957611e18611869565b5b611e2588828901611cad565b925050608086013567ffffffffffffffff811115611e4657611e45611869565b5b611e5288828901611d62565b9150509295509295909350565b60008060408385031215611e7657611e75611864565b5b6000611e8485828601611b27565b9250506020611e95858286016118b7565b9150509250929050565b600080fd5b60008083601f840112611eba57611eb9611b93565b5b8235905067ffffffffffffffff811115611ed757611ed6611e9f565b5b602083019150836020820283011115611ef357611ef2611c3f565b5b9250929050565b600080600060408486031215611f1357611f12611864565b5b6000611f21868287016118ed565b935050602084013567ffffffffffffffff811115611f4257611f41611869565b5b611f4e86828701611ea4565b92509250509250925092565b600067ffffffffffffffff821115611f7557611f74611b98565b5b602082029050602081019050919050565b6000611f99611f9484611f5a565b611bf8565b90508083825260208201905060208402830185811115611fbc57611fbb611c3f565b5b835b81811015611fe55780611fd188826118b7565b845260208401935050602081019050611fbe565b5050509392505050565b600082601f83011261200457612003611b93565b5b8135612014848260208601611f86565b91505092915050565b6000806040838503121561203457612033611864565b5b600083013567ffffffffffffffff81111561205257612051611869565b5b61205e85828601611fef565b925050602083013567ffffffffffffffff81111561207f5761207e611869565b5b61208b85828601611cad565b9150509250929050565b600081519050919050565b600082825260208201905092915050565b6000819050602082019050919050565b6120ca816118cc565b82525050565b60006120dc83836120c1565b60208301905092915050565b6000602082019050919050565b600061210082612095565b61210a81856120a0565b9350612115836120b1565b8060005b8381101561214657815161212d88826120d0565b9750612138836120e8565b925050600181019050612119565b5085935050505092915050565b6000602082019050818103600083015261216d81846120f5565b905092915050565b61217e816119f1565b811461218957600080fd5b50565b60008135905061219b81612175565b92915050565b600080604083850312156121b8576121b7611864565b5b60006121c6858286016118b7565b92505060206121d78582860161218c565b9150509250929050565b600080604083850312156121f8576121f7611864565b5b6000612206858286016118b7565b9250506020612217858286016118b7565b9150509250929050565b600080600080600060a0868803121561223d5761223c611864565b5b600061224b888289016118b7565b955050602061225c888289016118b7565b945050604061226d888289016118ed565b935050606061227e888289016118ed565b925050608086013567ffffffffffffffff81111561229f5761229e611869565b5b6122ab88828901611d62565b9150509295509295909350565b7f4e487b7100000000000000000000000000000000000000000000000000000000600052602260045260246000fd5b600060028204905060018216806122ff57607f821691505b602082108103612312576123116122b8565b5b50919050565b7f5342543a207472616e736665722064697361626c656400000000000000000000600082015250565b600061234e601683611a5f565b915061235982612318565b602082019050919050565b6000602082019050818103600083015261237d81612341565b9050919050565b7f4e6f206163636f756e7473000000000000000000000000000000000000000000600082015250565b60006123ba600b83611a5f565b91506123c582612384565b602082019050919050565b600060208201905081810360008301526123e9816123ad565b9050919050565b7f4e487b7100000000000000000000000000000000000000000000000000000000600052603260045260246000fd5b60006020828403121561243557612434611864565b5b6000612443848285016118b7565b91505092915050565b60006040820190506124616000830185611942565b61246e6020830184611942565b9392505050565b7f5342543a20617070726f76616c732064697361626c6564000000000000000000600082015250565b60006124ab601783611a5f565b91506124b682612475565b602082019050919050565b600060208201905081810360008301526124da8161249e565b9050919050565b6124ea8161188e565b82525050565b600060208201905061250560008301846124e1565b92915050565b600060408201905061252060008301856124e1565b61252d6020830184611b69565b9392505050565b600060808201905061254960008301876124e1565b6125566020830186611942565b6125636040830185611942565b6125706060830184611942565b95945050505050565b7f4e487b7100000000000000000000000000000000000000000000000000000000600052601160045260246000fd5b60006125b3826118cc565b91506125be836118cc565b92508282019050808211156125d6576125d5612579565b5b92915050565b600060408201905081810360008301526125f681856120f5565b9050818103602083015261260a81846120f5565b90509392505050565b600081519050919050565b600082825260208201905092915050565b600061263a82612613565b612644818561261e565b9350612654818560208601611a70565b61265d81611a9a565b840191505092915050565b600060a08201905061267d60008301886124e1565b61268a60208301876124e1565b6126976040830186611942565b6126a46060830185611942565b81810360808301526126b6818461262f565b90509695505050505050565b6000815190506126d181611998565b92915050565b6000602082840312156126ed576126ec611864565b5b60006126fb848285016126c2565b91505092915050565b600060a08201905061271960008301886124e1565b61272660208301876124e1565b818103604083015261273881866120f5565b9050818103606083015261274c81856120f5565b90508181036080830152612760818461262f565b9050969550505050505056fea2646970667358221220e860b52324e97122f86cceb63f6c2c460e7b6bbd6f90c3c8ff9f9418c7416f5b64736f6c634300081c0033",
  "linkReferences": {},
  "deployedLinkReferences": {}
}